{
  "_format": "hh-sol-artifact-1",
  "contractName": "StatusReportingContract",
  "sourceName": "contracts/StatusReportingContract.sol",
  "abi": [
    {
      "anonymous": false,
      "inputs": [
        {
          "indexed": false,
          "internalType": "address",
          "name": "user",
          "type": "address"
        },
        {
          "indexed": false,
          "internalType": "address",
          "name": "operator",
          "type": "address"
        },
        {
          "indexed": false,
          "internalType": "uint256",
          "name": "timestamp",
          "type": "uint256"
        },
        {
          "indexed": false,
          "internalType": "uint256",
          "name": "rate",
          "type": "uint256"
        }
      ],
      "name": "ReportSubmitted",
      "type": "event"
    },
    {
      "inputs": [
        {
          "internalType": "address",
          "name": "user",
          "type": "address"
        },
        {
          "internalType": "address",
          "name": "operator",
          "type": "address"
        }
      ],
      "name": "getLatestRate",
      "outputs": [
        {
          "internalType": "uint256",
          "name": "",
          "type": "uint256"
        }
      ],
      "stateMutability": "view",
      "type": "function"
    },
    {
      "inputs": [
        {
          "internalType": "address",
          "name": "",
          "type": "address"
        },
        {
          "internalType": "address",
          "name": "",
          "type": "address"
        }
      ],
      "name": "latestOperatorUserRate",
      "outputs": [
        {
          "internalType": "uint256",
          "name": "",
          "type": "uint256"
        }
      ],
      "stateMutability": "view",
      "type": "function"
    },
    {
      "inputs": [
        {
          "internalType": "address",
          "name": "",
          "type": "address"
        },
        {
          "internalType": "address",
          "name": "",
          "type": "address"
        },
        {
          "internalType": "uint256",
          "name": "",
          "type": "uint256"
        }
      ],
      "name": "operatorUserRates",
      "outputs": [
        {
          "internalType": "uint256",
          "name": "",
          "type": "uint256"
        }
      ],
      "stateMutability": "view",
      "type": "function"
    },
    {
      "inputs": [
        {
          "internalType": "address",
          "name": "user",
          "type": "address"
        },
        {
          "internalType": "address",
          "name": "operator",
          "type": "address"
        },
        {
          "internalType": "bytes",
          "name": "csi",
          "type": "bytes"
        }
      ],
      "name": "submitReport",
      "outputs": [],
      "stateMutability": "nonpayable",
      "type": "function"
    }
  ],
  "bytecode": "0x6080604052348015600f57600080fd5b50610a178061001f6000396000f3fe608060405234801561001057600080fd5b506004361061004b5760003560e01c806281557d1461005057806317f8a0ec146100805780632de64020146100b057806368408f5e146100e0575b600080fd5b61006a6004803603810190610065919061056a565b6100fc565b60405161007791906105cc565b60405180910390f35b61009a600480360381019061009591906105e7565b61013a565b6040516100a791906105cc565b60405180910390f35b6100ca60048036038101906100c591906105e7565b61015f565b6040516100d791906105cc565b60405180910390f35b6100fa60048036038101906100f5919061076d565b6101e6565b005b6000602052826000526040600020602052816000526040600020818154811061012457600080fd5b9060005260206000200160009250925050505481565b6001602052816000526040600020602052806000526040600020600091509150505481565b6000600160008473ffffffffffffffffffffffffffffffffffffffff1673ffffffffffffffffffffffffffffffffffffffff16815260200190815260200160002060008373ffffffffffffffffffffffffffffffffffffffff1673ffffffffffffffffffffffffffffffffffffffff16815260200190815260200160002054905092915050565b6101ef816103a1565b61022e576040517f08c379a000000000000000000000000000000000000000000000000000000000815260040161022590610839565b60405180910390fd5b6000610239826103ae565b90506000808573ffffffffffffffffffffffffffffffffffffffff1673ffffffffffffffffffffffffffffffffffffffff16815260200190815260200160002060008473ffffffffffffffffffffffffffffffffffffffff1673ffffffffffffffffffffffffffffffffffffffff16815260200190815260200160002081908060018154018082558091505060019003906000526020600020016000909190919091505580600160008673ffffffffffffffffffffffffffffffffffffffff1673ffffffffffffffffffffffffffffffffffffffff16815260200190815260200160002060008573ffffffffffffffffffffffffffffffffffffffff1673ffffffffffffffffffffffffffffffffffffffff168152602001908152602001600020819055507ff8ec561c7643a54b00c56c76c5c9029a336031880189649b0b4a2e01f4e6c875848442846040516103939493929190610868565b60405180910390a150505050565b6000808251119050919050565b60006008825110156103f5576040517f08c379a00000000000000000000000000000000000000000000000000000000081526004016103ec90610839565b60405180910390fd5b6000805b600881101561044d57838181518110610415576104146108ad565b5b602001015160f81c60f81b60f81c60ff1661010083610434919061090b565b61043e919061094d565b915080806001019150506103f9565b506000810361045d57620f424090505b60006103e8905060006102b5905060006103e88261047b919061090b565b90506000848461048b919061090b565b905060008260028461049d91906109b0565b836104a8919061094d565b6104b291906109b0565b9050809650505050505050919050565b6000604051905090565b600080fd5b600080fd5b600073ffffffffffffffffffffffffffffffffffffffff82169050919050565b6000610501826104d6565b9050919050565b610511816104f6565b811461051c57600080fd5b50565b60008135905061052e81610508565b92915050565b6000819050919050565b61054781610534565b811461055257600080fd5b50565b6000813590506105648161053e565b92915050565b600080600060608486031215610583576105826104cc565b5b60006105918682870161051f565b93505060206105a28682870161051f565b92505060406105b386828701610555565b9150509250925092565b6105c681610534565b82525050565b60006020820190506105e160008301846105bd565b92915050565b600080604083850312156105fe576105fd6104cc565b5b600061060c8582860161051f565b925050602061061d8582860161051f565b9150509250929050565b600080fd5b600080fd5b6000601f19601f8301169050919050565b7f4e487b7100000000000000000000000000000000000000000000000000000000600052604160045260246000fd5b61067a82610631565b810181811067ffffffffffffffff8211171561069957610698610642565b5b80604052505050565b60006106ac6104c2565b90506106b88282610671565b919050565b600067ffffffffffffffff8211156106d8576106d7610642565b5b6106e182610631565b9050602081019050919050565b82818337600083830152505050565b600061071061070b846106bd565b6106a2565b90508281526020810184848401111561072c5761072b61062c565b5b6107378482856106ee565b509392505050565b600082601f83011261075457610753610627565b5b81356107648482602086016106fd565b91505092915050565b600080600060608486031215610786576107856104cc565b5b60006107948682870161051f565b93505060206107a58682870161051f565b925050604084013567ffffffffffffffff8111156107c6576107c56104d1565b5b6107d28682870161073f565b9150509250925092565b600082825260208201905092915050565b7f496e76616c696420435349206461746100000000000000000000000000000000600082015250565b60006108236010836107dc565b915061082e826107ed565b602082019050919050565b6000602082019050818103600083015261085281610816565b9050919050565b610862816104f6565b82525050565b600060808201905061087d6000830187610859565b61088a6020830186610859565b61089760408301856105bd565b6108a460608301846105bd565b95945050505050565b7f4e487b7100000000000000000000000000000000000000000000000000000000600052603260045260246000fd5b7f4e487b7100000000000000000000000000000000000000000000000000000000600052601160045260246000fd5b600061091682610534565b915061092183610534565b925082820261092f81610534565b91508282048414831517610946576109456108dc565b5b5092915050565b600061095882610534565b915061096383610534565b925082820190508082111561097b5761097a6108dc565b5b92915050565b7f4e487b7100000000000000000000000000000000000000000000000000000000600052601260045260246000fd5b60006109bb82610534565b91506109c683610534565b9250826109d6576109d5610981565b5b82820490509291505056fea2646970667358221220ac989a5d2968b257a72fee89b968722813ae88daf03f93074530f82d0f7bc62d64736f6c634300081c0033",
  "linkReferences": {},
  "deployedLinkReferences": {}
}