{
  "_format": "hh-sol-artifact-1",
  "contractName": "RegistrationContract",
  "sourceName": "contracts/RegistrationContract.sol",
  "abi": [
    {
      "anonymous": false,
      "inputs": [
        {
          "indexed": false,
          "internalType": "address",
          "name": "user",
          "type": "address"
        },
        {
          "indexed": false,
          "internalType": "uint256",
          "name": "id",
          "type": "uint256"
        },
        {
          "indexed": false,
          "internalType": "bool",
          "name": "isOperator",
          "type": "bool"
        }
      ],
      "name": "RegistrationSuccess",
      "type": "event"
    },
    {
      "inputs": [
        {
          "internalType": "uint256",
          "name": "",
          "type": "uint256"
        }
      ],
      "name": "allOperators",
      "outputs": [
        {
          "internalType": "address",
          "name": "",
          "type": "address"
        }
      ],
      "stateMutability": "view",
      "type": "function"
    },
    {
      "inputs": [
        {
          "internalType": "uint256",
          "name": "",
          "type": "uint256"
        }
      ],
      "name": "allUsers",
      "outputs": [
        {
          "internalType": "address",
          "name": "",
          "type": "address"
        }
      ],
      "stateMutability": "view",
      "type": "function"
    },
    {
      "inputs": [],
      "name": "getAllOperators",
      "outputs": [
        {
          "internalType": "address[]",
          "name": "",
          "type": "address[]"
        }
      ],
      "stateMutability": "view",
      "type": "function"
    },
    {
      "inputs": [],
      "name": "getAllUsers",
      "outputs": [
        {
          "internalType": "address[]",
          "name": "",
          "type": "address[]"
        }
      ],
      "stateMutability": "view",
      "type": "function"
    },
    {
      "inputs": [
        {
          "internalType": "address",
          "name": "user",
          "type": "address"
        }
      ],
      "name": "getUserInfo",
      "outputs": [
        {
          "components": [
            {
              "internalType": "uint256",
              "name": "id",
              "type": "uint256"
            },
            {
              "internalType": "bool",
              "name": "isOperator",
              "type": "bool"
            }
          ],
          "internalType": "struct RegistrationContract.Info",
          "name": "",
          "type": "tuple"
        }
      ],
      "stateMutability": "view",
      "type": "function"
    },
    {
      "inputs": [
        {
          "internalType": "address",
          "name": "user",
          "type": "address"
        }
      ],
      "name": "isRegistered",
      "outputs": [
        {
          "internalType": "bool",
          "name": "",
          "type": "bool"
        }
      ],
      "stateMutability": "view",
      "type": "function"
    },
    {
      "inputs": [
        {
          "internalType": "address",
          "name": "user",
          "type": "address"
        },
        {
          "internalType": "bytes",
          "name": "proof",
          "type": "bytes"
        },
        {
          "internalType": "bool",
          "name": "isOperator",
          "type": "bool"
        }
      ],
      "name": "register",
      "outputs": [],
      "stateMutability": "nonpayable",
      "type": "function"
    },
    {
      "inputs": [
        {
          "internalType": "address",
          "name": "",
          "type": "address"
        }
      ],
      "name": "registry",
      "outputs": [
        {
          "internalType": "uint256",
          "name": "id",
          "type": "uint256"
        },
        {
          "internalType": "bool",
          "name": "isOperator",
          "type": "bool"
        }
      ],
      "stateMutability": "view",
      "type": "function"
    }
  ],
  "bytecode": "0x6080604052600160005560018055348015601857600080fd5b50610e93806100286000396000f3fe608060405234801561001057600080fd5b50600436106100885760003560e01c8063c98f014f1161005b578063c98f014f1461014e578063d911c6321461016a578063daa0fc6114610188578063e2842d79146101b857610088565b8063038defd71461008d5780636386c1c7146100be578063a2bdedf4146100ee578063c3c5a5471461011e575b600080fd5b6100a760048036038101906100a29190610875565b6101d6565b6040516100b59291906108d6565b60405180910390f35b6100d860048036038101906100d39190610875565b610207565b6040516100e5919061094c565b60405180910390f35b61010860048036038101906101039190610993565b610285565b60405161011591906109cf565b60405180910390f35b61013860048036038101906101339190610875565b6102c4565b60405161014591906109ea565b60405180910390f35b61016860048036038101906101639190610b77565b610313565b005b610172610668565b60405161017f9190610ca4565b60405180910390f35b6101a2600480360381019061019d9190610993565b6106f6565b6040516101af91906109cf565b60405180910390f35b6101c0610735565b6040516101cd9190610ca4565b60405180910390f35b60026020528060005260406000206000915090508060000154908060010160009054906101000a900460ff16905082565b61020f6107e7565b600260008373ffffffffffffffffffffffffffffffffffffffff1673ffffffffffffffffffffffffffffffffffffffff168152602001908152602001600020604051806040016040529081600082015481526020016001820160009054906101000a900460ff1615151515815250509050919050565b6003818154811061029557600080fd5b906000526020600020016000915054906101000a900473ffffffffffffffffffffffffffffffffffffffff1681565b600080600260008473ffffffffffffffffffffffffffffffffffffffff1673ffffffffffffffffffffffffffffffffffffffff1681526020019081526020016000206000015414159050919050565b61031d82826107c3565b61035c576040517f08c379a000000000000000000000000000000000000000000000000000000000815260040161035390610d23565b60405180910390fd5b6000600260008573ffffffffffffffffffffffffffffffffffffffff1673ffffffffffffffffffffffffffffffffffffffff16815260200190815260200160002060000154146103e1576040517f08c379a00000000000000000000000000000000000000000000000000000000081526004016103d890610d8f565b60405180910390fd5b80156104e857604051806040016040528060008081548092919061040490610dde565b91905055815260200160011515815250600260008573ffffffffffffffffffffffffffffffffffffffff1673ffffffffffffffffffffffffffffffffffffffff1681526020019081526020016000206000820151816000015560208201518160010160006101000a81548160ff0219169083151502179055509050506004839080600181540180825580915050600190039060005260206000200160009091909190916101000a81548173ffffffffffffffffffffffffffffffffffffffff021916908373ffffffffffffffffffffffffffffffffffffffff1602179055506105e6565b60405180604001604052806001600081548092919061050690610dde565b91905055815260200160001515815250600260008573ffffffffffffffffffffffffffffffffffffffff1673ffffffffffffffffffffffffffffffffffffffff1681526020019081526020016000206000820151816000015560208201518160010160006101000a81548160ff0219169083151502179055509050506003839080600181540180825580915050600190039060005260206000200160009091909190916101000a81548173ffffffffffffffffffffffffffffffffffffffff021916908373ffffffffffffffffffffffffffffffffffffffff1602179055505b7f6ee92115958d377b0b95585e804933e23903ad5fbfe78d49e4cf027e41c6f68b83600260008673ffffffffffffffffffffffffffffffffffffffff1673ffffffffffffffffffffffffffffffffffffffff168152602001908152602001600020600001548360405161065b93929190610e26565b60405180910390a1505050565b606060048054806020026020016040519081016040528092919081815260200182805480156106ec57602002820191906000526020600020905b8160009054906101000a900473ffffffffffffffffffffffffffffffffffffffff1673ffffffffffffffffffffffffffffffffffffffff16815260200190600101908083116106a2575b5050505050905090565b6004818154811061070657600080fd5b906000526020600020016000915054906101000a900473ffffffffffffffffffffffffffffffffffffffff1681565b606060038054806020026020016040519081016040528092919081815260200182805480156107b957602002820191906000526020600020905b8160009054906101000a900473ffffffffffffffffffffffffffffffffffffffff1673ffffffffffffffffffffffffffffffffffffffff168152602001906001019080831161076f575b5050505050905090565b600081156107d857600a8351101590506107e1565b60058351101590505b92915050565b6040518060400160405280600081526020016000151581525090565b6000604051905090565b600080fd5b600080fd5b600073ffffffffffffffffffffffffffffffffffffffff82169050919050565b600061084282610817565b9050919050565b61085281610837565b811461085d57600080fd5b50565b60008135905061086f81610849565b92915050565b60006020828403121561088b5761088a61080d565b5b600061089984828501610860565b91505092915050565b6000819050919050565b6108b5816108a2565b82525050565b60008115159050919050565b6108d0816108bb565b82525050565b60006040820190506108eb60008301856108ac565b6108f860208301846108c7565b9392505050565b610908816108a2565b82525050565b610917816108bb565b82525050565b60408201600082015161093360008501826108ff565b506020820151610946602085018261090e565b50505050565b6000604082019050610961600083018461091d565b92915050565b610970816108a2565b811461097b57600080fd5b50565b60008135905061098d81610967565b92915050565b6000602082840312156109a9576109a861080d565b5b60006109b78482850161097e565b91505092915050565b6109c981610837565b82525050565b60006020820190506109e460008301846109c0565b92915050565b60006020820190506109ff60008301846108c7565b92915050565b600080fd5b600080fd5b6000601f19601f8301169050919050565b7f4e487b7100000000000000000000000000000000000000000000000000000000600052604160045260246000fd5b610a5882610a0f565b810181811067ffffffffffffffff82111715610a7757610a76610a20565b5b80604052505050565b6000610a8a610803565b9050610a968282610a4f565b919050565b600067ffffffffffffffff821115610ab657610ab5610a20565b5b610abf82610a0f565b9050602081019050919050565b82818337600083830152505050565b6000610aee610ae984610a9b565b610a80565b905082815260208101848484011115610b0a57610b09610a0a565b5b610b15848285610acc565b509392505050565b600082601f830112610b3257610b31610a05565b5b8135610b42848260208601610adb565b91505092915050565b610b54816108bb565b8114610b5f57600080fd5b50565b600081359050610b7181610b4b565b92915050565b600080600060608486031215610b9057610b8f61080d565b5b6000610b9e86828701610860565b935050602084013567ffffffffffffffff811115610bbf57610bbe610812565b5b610bcb86828701610b1d565b9250506040610bdc86828701610b62565b9150509250925092565b600081519050919050565b600082825260208201905092915050565b6000819050602082019050919050565b610c1b81610837565b82525050565b6000610c2d8383610c12565b60208301905092915050565b6000602082019050919050565b6000610c5182610be6565b610c5b8185610bf1565b9350610c6683610c02565b8060005b83811015610c97578151610c7e8882610c21565b9750610c8983610c39565b925050600181019050610c6a565b5085935050505092915050565b60006020820190508181036000830152610cbe8184610c46565b905092915050565b600082825260208201905092915050565b7f496e76616c69642063726564656e7469616c7300000000000000000000000000600082015250565b6000610d0d601383610cc6565b9150610d1882610cd7565b602082019050919050565b60006020820190508181036000830152610d3c81610d00565b9050919050565b7f5573657220616c72656164792072656769737465726564000000000000000000600082015250565b6000610d79601783610cc6565b9150610d8482610d43565b602082019050919050565b60006020820190508181036000830152610da881610d6c565b9050919050565b7f4e487b7100000000000000000000000000000000000000000000000000000000600052601160045260246000fd5b6000610de9826108a2565b91507fffffffffffffffffffffffffffffffffffffffffffffffffffffffffffffffff8203610e1b57610e1a610daf565b5b600182019050919050565b6000606082019050610e3b60008301866109c0565b610e4860208301856108ac565b610e5560408301846108c7565b94935050505056fea26469706673582212208683d74d0fff70ef4834758a672402924d8a1f458b4e32960a4947bf2a1837df64736f6c634300081c0033",
  "linkReferences": {},
  "deployedLinkReferences": {}
}