{
  "_format": "hh-sol-artifact-1",
  "contractName": "SchedulingContract",
  "sourceName": "contracts/SchedulingContract.sol",
  "abi": [
    {
      "anonymous": false,
      "inputs": [
        {
          "indexed": false,
          "internalType": "address[]",
          "name": "operators",
          "type": "address[]"
        },
        {
          "indexed": false,
          "internalType": "address[]",
          "name": "selectedUsers",
          "type": "address[]"
        }
      ],
      "name": "Scheduled",
      "type": "event"
    },
    {
      "inputs": [],
      "name": "PRECISION",
      "outputs": [
        {
          "internalType": "uint256",
          "name": "",
          "type": "uint256"
        }
      ],
      "stateMutability": "view",
      "type": "function"
    },
    {
      "inputs": [
        {
          "internalType": "address",
          "name": "",
          "type": "address"
        },
        {
          "internalType": "address",
          "name": "",
          "type": "address"
        }
      ],
      "name": "allocatedRate",
      "outputs": [
        {
          "internalType": "uint256",
          "name": "",
          "type": "uint256"
        }
      ],
      "stateMutability": "view",
      "type": "function"
    },
    {
      "inputs": [],
      "name": "alpha",
      "outputs": [
        {
          "internalType": "uint256",
          "name": "",
          "type": "uint256"
        }
      ],
      "stateMutability": "view",
      "type": "function"
    },
    {
      "inputs": [
        {
          "internalType": "address",
          "name": "user",
          "type": "address"
        },
        {
          "internalType": "address",
          "name": "operator",
          "type": "address"
        }
      ],
      "name": "getSchedulingMatrix",
      "outputs": [
        {
          "internalType": "bool",
          "name": "",
          "type": "bool"
        }
      ],
      "stateMutability": "view",
      "type": "function"
    },
    {
      "inputs": [
        {
          "internalType": "address",
          "name": "user",
          "type": "address"
        },
        {
          "internalType": "address",
          "name": "operator",
          "type": "address"
        }
      ],
      "name": "getServiceDuration",
      "outputs": [
        {
          "internalType": "uint256",
          "name": "duration",
          "type": "uint256"
        }
      ],
      "stateMutability": "view",
      "type": "function"
    },
    {
      "inputs": [
        {
          "internalType": "uint256",
          "name": "",
          "type": "uint256"
        }
      ],
      "name": "operators",
      "outputs": [
        {
          "internalType": "address",
          "name": "",
          "type": "address"
        }
      ],
      "stateMutability": "view",
      "type": "function"
    },
    {
      "inputs": [],
      "name": "registrationContract",
      "outputs": [
        {
          "internalType": "address",
          "name": "",
          "type": "address"
        }
      ],
      "stateMutability": "view",
      "type": "function"
    },
    {
      "inputs": [
        {
          "internalType": "address",
          "name": "",
          "type": "address"
        },
        {
          "internalType": "address",
          "name": "",
          "type": "address"
        }
      ],
      "name": "schedulingMatrix",
      "outputs": [
        {
          "internalType": "bool",
          "name": "",
          "type": "bool"
        }
      ],
      "stateMutability": "view",
      "type": "function"
    },
    {
      "inputs": [
        {
          "internalType": "address",
          "name": "",
          "type": "address"
        }
      ],
      "name": "selectedUser",
      "outputs": [
        {
          "internalType": "address",
          "name": "",
          "type": "address"
        }
      ],
      "stateMutability": "view",
      "type": "function"
    },
    {
      "inputs": [
        {
          "internalType": "address",
          "name": "",
          "type": "address"
        },
        {
          "internalType": "address",
          "name": "",
          "type": "address"
        }
      ],
      "name": "serviceDuration",
      "outputs": [
        {
          "internalType": "uint256",
          "name": "",
          "type": "uint256"
        }
      ],
      "stateMutability": "view",
      "type": "function"
    },
    {
      "inputs": [
        {
          "internalType": "address",
          "name": "_registrationContract",
          "type": "address"
        }
      ],
      "name": "setRegistrationContract",
      "outputs": [],
      "stateMutability": "nonpayable",
      "type": "function"
    },
    {
      "inputs": [
        {
          "internalType": "address",
          "name": "_statusReportingContract",
          "type": "address"
        }
      ],
      "name": "setStatusReportingContract",
      "outputs": [],
      "stateMutability": "nonpayable",
      "type": "function"
    },
    {
      "inputs": [],
      "name": "statusReportingContract",
      "outputs": [
        {
          "internalType": "address",
          "name": "",
          "type": "address"
        }
      ],
      "stateMutability": "view",
      "type": "function"
    },
    {
      "inputs": [
        {
          "internalType": "address",
          "name": "",
          "type": "address"
        }
      ],
      "name": "throughput",
      "outputs": [
        {
          "internalType": "uint256",
          "name": "",
          "type": "uint256"
        }
      ],
      "stateMutability": "view",
      "type": "function"
    },
    {
      "inputs": [
        {
          "internalType": "address",
          "name": "",
          "type": "address"
        }
      ],
      "name": "throughputRemainder",
      "outputs": [
        {
          "internalType": "uint256",
          "name": "",
          "type": "uint256"
        }
      ],
      "stateMutability": "view",
      "type": "function"
    },
    {
      "inputs": [],
      "name": "updateScheduling",
      "outputs": [],
      "stateMutability": "nonpayable",
      "type": "function"
    },
    {
      "inputs": [
        {
          "internalType": "uint256",
          "name": "",
          "type": "uint256"
        }
      ],
      "name": "users",
      "outputs": [
        {
          "internalType": "address",
          "name": "",
          "type": "address"
        }
      ],
      "stateMutability": "view",
      "type": "function"
    }
  ],
  "bytecode": "0x6080604052348015600f57600080fd5b50611e038061001f6000396000f3fe608060405234801561001057600080fd5b506004361061010b5760003560e01c8063749e348c116100a2578063d38a4ac511610071578063d38a4ac514610306578063d3db03cc14610310578063db1d0fd51461032c578063e28d49061461034a578063fe9f34c81461037a5761010b565b8063749e348c1461026c5780638358ea041461029c578063aaf5eb68146102b8578063af55ed0c146102d65761010b565b80631e522c3e116100de5780631e522c3e146101be5780632611ca27146101dc57806329b41c701461020c578063365b98b21461023c5761010b565b80630be38c2b146101105780630dbaea09146101405780630f169c1a146101705780631df72340146101a0575b600080fd5b61012a600480360381019061012591906116b1565b6103aa565b604051610137919061170c565b60405180910390f35b61015a600480360381019061015591906116b1565b61043e565b6040516101679190611740565b60405180910390f35b61018a600480360381019061018591906116b1565b610463565b6040516101979190611740565b60405180910390f35b6101a8610488565b6040516101b5919061176a565b60405180910390f35b6101c66104ae565b6040516101d3919061176a565b60405180910390f35b6101f660048036038101906101f19190611785565b6104d4565b604051610203919061176a565b60405180910390f35b61022660048036038101906102219190611785565b610507565b6040516102339190611740565b60405180910390f35b610256600480360381019061025191906117de565b61051f565b604051610263919061176a565b60405180910390f35b610286600480360381019061028191906116b1565b61055e565b6040516102939190611740565b60405180910390f35b6102b660048036038101906102b19190611785565b6105e5565b005b6102c0610629565b6040516102cd9190611740565b60405180910390f35b6102f060048036038101906102eb91906116b1565b610631565b6040516102fd919061170c565b60405180910390f35b61030e610660565b005b61032a60048036038101906103259190611785565b611327565b005b61033461136b565b6040516103419190611740565b60405180910390f35b610364600480360381019061035f91906117de565b611371565b604051610371919061176a565b60405180910390f35b610394600480360381019061038f9190611785565b6113b0565b6040516103a19190611740565b60405180910390f35b6000600360008473ffffffffffffffffffffffffffffffffffffffff1673ffffffffffffffffffffffffffffffffffffffff16815260200190815260200160002060008373ffffffffffffffffffffffffffffffffffffffff1673ffffffffffffffffffffffffffffffffffffffff16815260200190815260200160002060009054906101000a900460ff16905092915050565b6004602052816000526040600020602052806000526040600020600091509150505481565b6005602052816000526040600020602052806000526040600020600091509150505481565b600660009054906101000a900473ffffffffffffffffffffffffffffffffffffffff1681565b600760009054906101000a900473ffffffffffffffffffffffffffffffffffffffff1681565b60006020528060005260406000206000915054906101000a900473ffffffffffffffffffffffffffffffffffffffff1681565b60026020528060005260406000206000915090505481565b6008818154811061052f57600080fd5b906000526020600020016000915054906101000a900473ffffffffffffffffffffffffffffffffffffffff1681565b6000600560008473ffffffffffffffffffffffffffffffffffffffff1673ffffffffffffffffffffffffffffffffffffffff16815260200190815260200160002060008373ffffffffffffffffffffffffffffffffffffffff1673ffffffffffffffffffffffffffffffffffffffff16815260200190815260200160002054905092915050565b80600660006101000a81548173ffffffffffffffffffffffffffffffffffffffff021916908373ffffffffffffffffffffffffffffffffffffffff16021790555050565b6305f5e10081565b60036020528160005260406000206020528060005260406000206000915091509054906101000a900460ff1681565b6060806000600760009054906101000a900473ffffffffffffffffffffffffffffffffffffffff1690508073ffffffffffffffffffffffffffffffffffffffff1663e2842d796040518163ffffffff1660e01b8152600401600060405180830381865afa1580156106d5573d6000803e3d6000fd5b505050506040513d6000823e3d601f19601f820116820180604052508101906106fe9190611979565b92508073ffffffffffffffffffffffffffffffffffffffff1663d911c6326040518163ffffffff1660e01b8152600401600060405180830381865afa15801561074b573d6000803e3d6000fd5b505050506040513d6000823e3d601f19601f820116820180604052508101906107749190611979565b915060005b8251811015610f44576000838281518110610797576107966119c2565b5b6020026020010151905060008060008373ffffffffffffffffffffffffffffffffffffffff1673ffffffffffffffffffffffffffffffffffffffff16815260200190815260200160002060009054906101000a900473ffffffffffffffffffffffffffffffffffffffff169050600073ffffffffffffffffffffffffffffffffffffffff168173ffffffffffffffffffffffffffffffffffffffff1614610950576000600360008373ffffffffffffffffffffffffffffffffffffffff1673ffffffffffffffffffffffffffffffffffffffff16815260200190815260200160002060008473ffffffffffffffffffffffffffffffffffffffff1673ffffffffffffffffffffffffffffffffffffffff16815260200190815260200160002060006101000a81548160ff0219169083151502179055506000600460008373ffffffffffffffffffffffffffffffffffffffff1673ffffffffffffffffffffffffffffffffffffffff16815260200190815260200160002060008473ffffffffffffffffffffffffffffffffffffffff1673ffffffffffffffffffffffffffffffffffffffff168152602001908152602001600020819055505b60008060008473ffffffffffffffffffffffffffffffffffffffff1673ffffffffffffffffffffffffffffffffffffffff16815260200190815260200160002060006101000a81548173ffffffffffffffffffffffffffffffffffffffff021916908373ffffffffffffffffffffffffffffffffffffffff16021790555060008060005b8851811015610bab576000610a038a83815181106109f5576109f46119c2565b5b6020026020010151876113c8565b9050600080600160008d8681518110610a1f57610a1e6119c2565b5b602002602001015173ffffffffffffffffffffffffffffffffffffffff1673ffffffffffffffffffffffffffffffffffffffff168152602001908152602001600020541115610ae357600160008c8581518110610a7f57610a7e6119c2565b5b602002602001015173ffffffffffffffffffffffffffffffffffffffff1673ffffffffffffffffffffffffffffffffffffffff16815260200190815260200160002054633b9aca0083610ad29190611a20565b610adc9190611a91565b9050610af6565b6305f5e10082610af39190611a20565b90505b83811115610b9c578093508a8381518110610b1457610b136119c2565b5b60200260200101516000808973ffffffffffffffffffffffffffffffffffffffff1673ffffffffffffffffffffffffffffffffffffffff16815260200190815260200160002060006101000a81548173ffffffffffffffffffffffffffffffffffffffff021916908373ffffffffffffffffffffffffffffffffffffffff1602179055508194505b505080806001019150506109d4565b50600073ffffffffffffffffffffffffffffffffffffffff166000808673ffffffffffffffffffffffffffffffffffffffff1673ffffffffffffffffffffffffffffffffffffffff16815260200190815260200160002060009054906101000a900473ffffffffffffffffffffffffffffffffffffffff1673ffffffffffffffffffffffffffffffffffffffff1614610f33576001600360008060008873ffffffffffffffffffffffffffffffffffffffff1673ffffffffffffffffffffffffffffffffffffffff16815260200190815260200160002060009054906101000a900473ffffffffffffffffffffffffffffffffffffffff1673ffffffffffffffffffffffffffffffffffffffff1673ffffffffffffffffffffffffffffffffffffffff16815260200190815260200160002060008673ffffffffffffffffffffffffffffffffffffffff1673ffffffffffffffffffffffffffffffffffffffff16815260200190815260200160002060006101000a81548160ff02191690831515021790555081600460008060008873ffffffffffffffffffffffffffffffffffffffff1673ffffffffffffffffffffffffffffffffffffffff16815260200190815260200160002060009054906101000a900473ffffffffffffffffffffffffffffffffffffffff1673ffffffffffffffffffffffffffffffffffffffff1673ffffffffffffffffffffffffffffffffffffffff16815260200190815260200160002060008673ffffffffffffffffffffffffffffffffffffffff1673ffffffffffffffffffffffffffffffffffffffff1681526020019081526020016000208190555060104285604051602001610e25929190611b2b565b6040516020818303038152906040528051906020012060001c610e489190611b57565b6023610e549190611b88565b600560008060008873ffffffffffffffffffffffffffffffffffffffff1673ffffffffffffffffffffffffffffffffffffffff16815260200190815260200160002060009054906101000a900473ffffffffffffffffffffffffffffffffffffffff1673ffffffffffffffffffffffffffffffffffffffff1673ffffffffffffffffffffffffffffffffffffffff16815260200190815260200160002060008673ffffffffffffffffffffffffffffffffffffffff1673ffffffffffffffffffffffffffffffffffffffff168152602001908152602001600020819055505b505050508080600101915050610779565b5060005b83518110156112e0576000805b84518110156110ed5760036000878581518110610f7557610f746119c2565b5b602002602001015173ffffffffffffffffffffffffffffffffffffffff1673ffffffffffffffffffffffffffffffffffffffff1681526020019081526020016000206000868381518110610fcc57610fcb6119c2565b5b602002602001015173ffffffffffffffffffffffffffffffffffffffff1673ffffffffffffffffffffffffffffffffffffffff16815260200190815260200160002060009054906101000a900460ff16156110e05760046000878581518110611038576110376119c2565b5b602002602001015173ffffffffffffffffffffffffffffffffffffffff1673ffffffffffffffffffffffffffffffffffffffff168152602001908152602001600020600086838151811061108f5761108e6119c2565b5b602002602001015173ffffffffffffffffffffffffffffffffffffffff1673ffffffffffffffffffffffffffffffffffffffff16815260200190815260200160002054826110dd9190611b88565b91505b8080600101915050610f55565b50600060016000878581518110611107576111066119c2565b5b602002602001015173ffffffffffffffffffffffffffffffffffffffff1673ffffffffffffffffffffffffffffffffffffffff168152602001908152602001600020549050600060026000888681518110611165576111646119c2565b5b602002602001015173ffffffffffffffffffffffffffffffffffffffff1673ffffffffffffffffffffffffffffffffffffffff1681526020019081526020016000205490506000816305f5e100856111bd9190611a20565b8460016127106111cd9190611bbc565b6111d79190611a20565b6111e19190611b88565b6111eb9190611b88565b90506000612710826111fd9190611a91565b905060006127108361120f9190611b57565b905081600160008c8a81518110611229576112286119c2565b5b602002602001015173ffffffffffffffffffffffffffffffffffffffff1673ffffffffffffffffffffffffffffffffffffffff1681526020019081526020016000208190555080600260008c8a81518110611287576112866119c2565b5b602002602001015173ffffffffffffffffffffffffffffffffffffffff1673ffffffffffffffffffffffffffffffffffffffff168152602001908152602001600020819055505050505050508080600101915050610f48565b507f8e6d080072145428513833a9657e57931d0cfb5fb603d9482a1a4b26469c26db8261130c84611506565b60405161131a929190611cae565b60405180910390a1505050565b80600760006101000a81548173ffffffffffffffffffffffffffffffffffffffff021916908373ffffffffffffffffffffffffffffffffffffffff16021790555050565b61271081565b6009818154811061138157600080fd5b906000526020600020016000915054906101000a900473ffffffffffffffffffffffffffffffffffffffff1681565b60016020528060005260406000206000915090505481565b60008073ffffffffffffffffffffffffffffffffffffffff16600660009054906101000a900473ffffffffffffffffffffffffffffffffffffffff1673ffffffffffffffffffffffffffffffffffffffff160361145a576040517f08c379a000000000000000000000000000000000000000000000000000000000815260040161145190611d42565b60405180910390fd5b6000600660009054906101000a900473ffffffffffffffffffffffffffffffffffffffff1690508073ffffffffffffffffffffffffffffffffffffffff16632de6402085856040518363ffffffff1660e01b81526004016114bc929190611d62565b602060405180830381865afa1580156114d9573d6000803e3d6000fd5b505050506040513d601f19601f820116820180604052508101906114fd9190611da0565b91505092915050565b60606000825167ffffffffffffffff81111561152557611524611821565b5b6040519080825280602002602001820160405280156115535781602001602082028036833780820191505090505b50905060005b835181101561163557600080858381518110611578576115776119c2565b5b602002602001015173ffffffffffffffffffffffffffffffffffffffff1673ffffffffffffffffffffffffffffffffffffffff16815260200190815260200160002060009054906101000a900473ffffffffffffffffffffffffffffffffffffffff168282815181106115ee576115ed6119c2565b5b602002602001019073ffffffffffffffffffffffffffffffffffffffff16908173ffffffffffffffffffffffffffffffffffffffff16815250508080600101915050611559565b5080915050919050565b6000604051905090565b600080fd5b600080fd5b600073ffffffffffffffffffffffffffffffffffffffff82169050919050565b600061167e82611653565b9050919050565b61168e81611673565b811461169957600080fd5b50565b6000813590506116ab81611685565b92915050565b600080604083850312156116c8576116c7611649565b5b60006116d68582860161169c565b92505060206116e78582860161169c565b9150509250929050565b60008115159050919050565b611706816116f1565b82525050565b600060208201905061172160008301846116fd565b92915050565b6000819050919050565b61173a81611727565b82525050565b60006020820190506117556000830184611731565b92915050565b61176481611673565b82525050565b600060208201905061177f600083018461175b565b92915050565b60006020828403121561179b5761179a611649565b5b60006117a98482850161169c565b91505092915050565b6117bb81611727565b81146117c657600080fd5b50565b6000813590506117d8816117b2565b92915050565b6000602082840312156117f4576117f3611649565b5b6000611802848285016117c9565b91505092915050565b600080fd5b6000601f19601f8301169050919050565b7f4e487b7100000000000000000000000000000000000000000000000000000000600052604160045260246000fd5b61185982611810565b810181811067ffffffffffffffff8211171561187857611877611821565b5b80604052505050565b600061188b61163f565b90506118978282611850565b919050565b600067ffffffffffffffff8211156118b7576118b6611821565b5b602082029050602081019050919050565b600080fd5b6000815190506118dc81611685565b92915050565b60006118f56118f08461189c565b611881565b90508083825260208201905060208402830185811115611918576119176118c8565b5b835b81811015611941578061192d88826118cd565b84526020840193505060208101905061191a565b5050509392505050565b600082601f8301126119605761195f61180b565b5b81516119708482602086016118e2565b91505092915050565b60006020828403121561198f5761198e611649565b5b600082015167ffffffffffffffff8111156119ad576119ac61164e565b5b6119b98482850161194b565b91505092915050565b7f4e487b7100000000000000000000000000000000000000000000000000000000600052603260045260246000fd5b7f4e487b7100000000000000000000000000000000000000000000000000000000600052601160045260246000fd5b6000611a2b82611727565b9150611a3683611727565b9250828202611a4481611727565b91508282048414831517611a5b57611a5a6119f1565b5b5092915050565b7f4e487b7100000000000000000000000000000000000000000000000000000000600052601260045260246000fd5b6000611a9c82611727565b9150611aa783611727565b925082611ab757611ab6611a62565b5b828204905092915050565b6000819050919050565b611add611ad882611727565b611ac2565b82525050565b60008160601b9050919050565b6000611afb82611ae3565b9050919050565b6000611b0d82611af0565b9050919050565b611b25611b2082611673565b611b02565b82525050565b6000611b378285611acc565b602082019150611b478284611b14565b6014820191508190509392505050565b6000611b6282611727565b9150611b6d83611727565b925082611b7d57611b7c611a62565b5b828206905092915050565b6000611b9382611727565b9150611b9e83611727565b9250828201905080821115611bb657611bb56119f1565b5b92915050565b6000611bc782611727565b9150611bd283611727565b9250828203905081811115611bea57611be96119f1565b5b92915050565b600081519050919050565b600082825260208201905092915050565b6000819050602082019050919050565b611c2581611673565b82525050565b6000611c378383611c1c565b60208301905092915050565b6000602082019050919050565b6000611c5b82611bf0565b611c658185611bfb565b9350611c7083611c0c565b8060005b83811015611ca1578151611c888882611c2b565b9750611c9383611c43565b925050600181019050611c74565b5085935050505092915050565b60006040820190508181036000830152611cc88185611c50565b90508181036020830152611cdc8184611c50565b90509392505050565b600082825260208201905092915050565b7f5374617475735265706f7274696e67436f6e7472616374206e6f742073657400600082015250565b6000611d2c601f83611ce5565b9150611d3782611cf6565b602082019050919050565b60006020820190508181036000830152611d5b81611d1f565b9050919050565b6000604082019050611d77600083018561175b565b611d84602083018461175b565b9392505050565b600081519050611d9a816117b2565b92915050565b600060208284031215611db657611db5611649565b5b6000611dc484828501611d8b565b9150509291505056fea2646970667358221220bf9e8dd7ea5f3514b7af3262505218d184a5243fff830f6aa0f164e6d439ac8764736f6c634300081c0033",
  "linkReferences": {},
  "deployedLinkReferences": {}
}