{
  "_format": "hh-sol-artifact-1",
  "contractName": "SettlementContract",
  "sourceName": "contracts/SettlementContract.sol",
  "abi": [
    {
      "anonymous": false,
      "inputs": [
        {
          "indexed": false,
          "internalType": "address",
          "name": "user",
          "type": "address"
        },
        {
          "indexed": false,
          "internalType": "address",
          "name": "operator",
          "type": "address"
        },
        {
          "indexed": false,
          "internalType": "uint256",
          "name": "cost",
          "type": "uint256"
        }
      ],
      "name": "PaymentProcessed",
      "type": "event"
    },
    {
      "anonymous": false,
      "inputs": [
        {
          "indexed": false,
          "internalType": "address",
          "name": "user",
          "type": "address"
        },
        {
          "indexed": false,
          "internalType": "address",
          "name": "operator",
          "type": "address"
        },
        {
          "indexed": false,
          "internalType": "uint256",
          "name": "duration",
          "type": "uint256"
        },
        {
          "indexed": false,
          "internalType": "uint256",
          "name": "bandwidth",
          "type": "uint256"
        }
      ],
      "name": "ServiceNotified",
      "type": "event"
    },
    {
      "inputs": [
        {
          "internalType": "address",
          "name": "operator",
          "type": "address"
        },
        {
          "internalType": "uint256",
          "name": "duration",
          "type": "uint256"
        },
        {
          "internalType": "uint256",
          "name": "bandwidth",
          "type": "uint256"
        }
      ],
      "name": "calculateCost",
      "outputs": [
        {
          "internalType": "uint256",
          "name": "",
          "type": "uint256"
        }
      ],
      "stateMutability": "view",
      "type": "function"
    },
    {
      "inputs": [
        {
          "internalType": "address",
          "name": "user",
          "type": "address"
        },
        {
          "internalType": "address",
          "name": "operator",
          "type": "address"
        }
      ],
      "name": "getServiceParameters",
      "outputs": [
        {
          "internalType": "uint256",
          "name": "duration",
          "type": "uint256"
        },
        {
          "internalType": "uint256",
          "name": "bandwidth",
          "type": "uint256"
        }
      ],
      "stateMutability": "view",
      "type": "function"
    },
    {
      "inputs": [
        {
          "internalType": "address",
          "name": "",
          "type": "address"
        }
      ],
      "name": "operatorRates",
      "outputs": [
        {
          "internalType": "uint256",
          "name": "",
          "type": "uint256"
        }
      ],
      "stateMutability": "view",
      "type": "function"
    },
    {
      "inputs": [],
      "name": "processScheduledTransactions",
      "outputs": [],
      "stateMutability": "nonpayable",
      "type": "function"
    },
    {
      "inputs": [],
      "name": "registrationContract",
      "outputs": [
        {
          "internalType": "address",
          "name": "",
          "type": "address"
        }
      ],
      "stateMutability": "view",
      "type": "function"
    },
    {
      "inputs": [],
      "name": "schedulingContract",
      "outputs": [
        {
          "internalType": "address",
          "name": "",
          "type": "address"
        }
      ],
      "stateMutability": "view",
      "type": "function"
    },
    {
      "inputs": [
        {
          "internalType": "address",
          "name": "operator",
          "type": "address"
        },
        {
          "internalType": "uint256",
          "name": "rate",
          "type": "uint256"
        }
      ],
      "name": "setOperatorRate",
      "outputs": [],
      "stateMutability": "nonpayable",
      "type": "function"
    },
    {
      "inputs": [
        {
          "internalType": "address",
          "name": "_registrationContract",
          "type": "address"
        }
      ],
      "name": "setRegistrationContract",
      "outputs": [],
      "stateMutability": "nonpayable",
      "type": "function"
    },
    {
      "inputs": [
        {
          "internalType": "address",
          "name": "_schedulingContract",
          "type": "address"
        }
      ],
      "name": "setSchedulingContract",
      "outputs": [],
      "stateMutability": "nonpayable",
      "type": "function"
    },
    {
      "inputs": [
        {
          "internalType": "address",
          "name": "user",
          "type": "address"
        },
        {
          "internalType": "address",
          "name": "operator",
          "type": "address"
        },
        {
          "internalType": "uint256",
          "name": "duration",
          "type": "uint256"
        },
        {
          "internalType": "uint256",
          "name": "bandwidth",
          "type": "uint256"
        }
      ],
      "name": "settleService",
      "outputs": [],
      "stateMutability": "nonpayable",
      "type": "function"
    }
  ],
  "bytecode": "0x6080604052348015600f57600080fd5b50610fc58061001f6000396000f3fe608060405234801561001057600080fd5b506004361061009e5760003560e01c8063c526b66511610066578063c526b66514610147578063d3db03cc14610151578063e56c7d7d1461016d578063e82ac7721461019e578063f89b2f21146101ce5761009e565b80630413fcaa146100a35780630c767bfd146100bf5780631e522c3e146100db57806387cad68e146100f95780638a0a157f14610117575b600080fd5b6100bd60048036038101906100b89190610955565b6101ea565b005b6100d960048036038101906100d491906109b8565b61022d565b005b6100e3610275565b6040516100f09190610a07565b60405180910390f35b61010161029b565b60405161010e9190610a07565b60405180910390f35b610131600480360381019061012c9190610955565b6102bf565b60405161013e9190610a31565b60405180910390f35b61014f6102d7565b005b61016b60048036038101906101669190610955565b610537565b005b61018760048036038101906101829190610a4c565b61057b565b604051610195929190610a8c565b60405180910390f35b6101b860048036038101906101b39190610ab5565b610691565b6040516101c59190610a31565b60405180910390f35b6101e860048036038101906101e39190610b08565b610704565b005b806000806101000a81548173ffffffffffffffffffffffffffffffffffffffff021916908373ffffffffffffffffffffffffffffffffffffffff16021790555050565b80600260008473ffffffffffffffffffffffffffffffffffffffff1673ffffffffffffffffffffffffffffffffffffffff168152602001908152602001600020819055505050565b600160009054906101000a900473ffffffffffffffffffffffffffffffffffffffff1681565b60008054906101000a900473ffffffffffffffffffffffffffffffffffffffff1681565b60026020528060005260406000206000915090505481565b6060806000600160009054906101000a900473ffffffffffffffffffffffffffffffffffffffff1690508073ffffffffffffffffffffffffffffffffffffffff1663e2842d796040518163ffffffff1660e01b8152600401600060405180830381865afa15801561034c573d6000803e3d6000fd5b505050506040513d6000823e3d601f19601f820116820180604052508101906103759190610cdd565b92508073ffffffffffffffffffffffffffffffffffffffff1663d911c6326040518163ffffffff1660e01b8152600401600060405180830381865afa1580156103c2573d6000803e3d6000fd5b505050506040513d6000823e3d601f19601f820116820180604052508101906103eb9190610cdd565b915060005b83518110156105315760005b835181101561052357600061044586848151811061041d5761041c610d26565b5b602002602001015186848151811061043857610437610d26565b5b6020026020010151610760565b905080156105155760008061048e88868151811061046657610465610d26565b5b602002602001015188868151811061048157610480610d26565b5b602002602001015161057b565b915091506104d28886815181106104a8576104a7610d26565b5b60200260200101518886815181106104c3576104c2610d26565b5b6020026020010151848461089b565b6105128886815181106104e8576104e7610d26565b5b602002602001015188868151811061050357610502610d26565b5b60200260200101518484610704565b50505b5080806001019150506103fc565b5080806001019150506103f0565b50505050565b80600160006101000a81548173ffffffffffffffffffffffffffffffffffffffff021916908373ffffffffffffffffffffffffffffffffffffffff16021790555050565b600080600073ffffffffffffffffffffffffffffffffffffffff1660008054906101000a900473ffffffffffffffffffffffffffffffffffffffff1673ffffffffffffffffffffffffffffffffffffffff16146106785760008060009054906101000a900473ffffffffffffffffffffffffffffffffffffffff1690508073ffffffffffffffffffffffffffffffffffffffff1663749e348c86866040518363ffffffff1660e01b8152600401610633929190610d55565b602060405180830381865afa158015610650573d6000803e3d6000fd5b505050506040513d601f19601f820116820180604052508101906106749190610d93565b9250505b6000820361068557603291505b6103e890509250929050565b600080600260008673ffffffffffffffffffffffffffffffffffffffff1673ffffffffffffffffffffffffffffffffffffffff168152602001908152602001600020549050600081036106e357605790505b8284826106f09190610def565b6106fa9190610def565b9150509392505050565b6000610711848484610691565b905061071e8585836108de565b7f0538ab32a957d2b55d0ec70a4029e73fdf19f500832839b1d7bafcfbca2a563085858360405161075193929190610e31565b60405180910390a15050505050565b60008073ffffffffffffffffffffffffffffffffffffffff1660008054906101000a900473ffffffffffffffffffffffffffffffffffffffff1673ffffffffffffffffffffffffffffffffffffffff16036107f0576040517f08c379a00000000000000000000000000000000000000000000000000000000081526004016107e790610ec5565b60405180910390fd5b60008060009054906101000a900473ffffffffffffffffffffffffffffffffffffffff1690508073ffffffffffffffffffffffffffffffffffffffff16630be38c2b85856040518363ffffffff1660e01b8152600401610851929190610d55565b602060405180830381865afa15801561086e573d6000803e3d6000fd5b505050506040513d601f19601f820116820180604052508101906108929190610f1d565b91505092915050565b7f49fbe58ab040c054f5ccd6ccd485baf8cd765ef480d9ae9807e3482e1a029e56848484846040516108d09493929190610f4a565b60405180910390a150505050565b505050565b6000604051905090565b600080fd5b600080fd5b600073ffffffffffffffffffffffffffffffffffffffff82169050919050565b6000610922826108f7565b9050919050565b61093281610917565b811461093d57600080fd5b50565b60008135905061094f81610929565b92915050565b60006020828403121561096b5761096a6108ed565b5b600061097984828501610940565b91505092915050565b6000819050919050565b61099581610982565b81146109a057600080fd5b50565b6000813590506109b28161098c565b92915050565b600080604083850312156109cf576109ce6108ed565b5b60006109dd85828601610940565b92505060206109ee858286016109a3565b9150509250929050565b610a0181610917565b82525050565b6000602082019050610a1c60008301846109f8565b92915050565b610a2b81610982565b82525050565b6000602082019050610a466000830184610a22565b92915050565b60008060408385031215610a6357610a626108ed565b5b6000610a7185828601610940565b9250506020610a8285828601610940565b9150509250929050565b6000604082019050610aa16000830185610a22565b610aae6020830184610a22565b9392505050565b600080600060608486031215610ace57610acd6108ed565b5b6000610adc86828701610940565b9350506020610aed868287016109a3565b9250506040610afe868287016109a3565b9150509250925092565b60008060008060808587031215610b2257610b216108ed565b5b6000610b3087828801610940565b9450506020610b4187828801610940565b9350506040610b52878288016109a3565b9250506060610b63878288016109a3565b91505092959194509250565b600080fd5b6000601f19601f8301169050919050565b7f4e487b7100000000000000000000000000000000000000000000000000000000600052604160045260246000fd5b610bbd82610b74565b810181811067ffffffffffffffff82111715610bdc57610bdb610b85565b5b80604052505050565b6000610bef6108e3565b9050610bfb8282610bb4565b919050565b600067ffffffffffffffff821115610c1b57610c1a610b85565b5b602082029050602081019050919050565b600080fd5b600081519050610c4081610929565b92915050565b6000610c59610c5484610c00565b610be5565b90508083825260208201905060208402830185811115610c7c57610c7b610c2c565b5b835b81811015610ca55780610c918882610c31565b845260208401935050602081019050610c7e565b5050509392505050565b600082601f830112610cc457610cc3610b6f565b5b8151610cd4848260208601610c46565b91505092915050565b600060208284031215610cf357610cf26108ed565b5b600082015167ffffffffffffffff811115610d1157610d106108f2565b5b610d1d84828501610caf565b91505092915050565b7f4e487b7100000000000000000000000000000000000000000000000000000000600052603260045260246000fd5b6000604082019050610d6a60008301856109f8565b610d7760208301846109f8565b9392505050565b600081519050610d8d8161098c565b92915050565b600060208284031215610da957610da86108ed565b5b6000610db784828501610d7e565b91505092915050565b7f4e487b7100000000000000000000000000000000000000000000000000000000600052601160045260246000fd5b6000610dfa82610982565b9150610e0583610982565b9250828202610e1381610982565b91508282048414831517610e2a57610e29610dc0565b5b5092915050565b6000606082019050610e4660008301866109f8565b610e5360208301856109f8565b610e606040830184610a22565b949350505050565b600082825260208201905092915050565b7f5363686564756c696e67436f6e7472616374206e6f7420736574000000000000600082015250565b6000610eaf601a83610e68565b9150610eba82610e79565b602082019050919050565b60006020820190508181036000830152610ede81610ea2565b9050919050565b60008115159050919050565b610efa81610ee5565b8114610f0557600080fd5b50565b600081519050610f1781610ef1565b92915050565b600060208284031215610f3357610f326108ed565b5b6000610f4184828501610f08565b91505092915050565b6000608082019050610f5f60008301876109f8565b610f6c60208301866109f8565b610f796040830185610a22565b610f866060830184610a22565b9594505050505056fea2646970667358221220e1ac58daa59ee058bc09acd6d63cf37eaac8dbb0f85653bcba16c95b80b8919464736f6c634300081c0033",
  "linkReferences": {},
  "deployedLinkReferences": {}
}